:100000000C9434000C9451000C9451000C94510049
:100010000C9451000C9451000C9451000C9451001C
:100020000C9451000C9451000C9451000C9451000C
:100030000C9451000C9453000C9451000C945100FA
:100040000C945D010C9451000C9451000C945100DF
:100050000C9451000C9451000C9451000C945100DC
:100060000C9451000C94510011241FBECFEFD4E02A
:10007000DEBFCDBF11E0A0E0B1E0E2ECF3E002C0F2
:1000800005900D92A030B107D9F711E0A0E0B1E0E2
:1000900001C01D92A632B107E1F70E9456010C94EF
:1000A000DF010C9400001F920F920FB60F921124E3
:1000B0002F933F934F935F936F937F938F939F9370
:1000C000AF93BF93EF93FF9380E2809380001092F1
:1000D0006F0010920001E0910101F0910201309750
:1000E00011F078940995FF91EF91BF91AF919F9195
:1000F0008F917F916F915F914F913F912F910F90D1
:100100000FBE0F901F90189580910001882311F069
:1001100081E0089580E28093800080911C01882313
:1001200019F010921C0102C02D9A2D98E3E0F1E025
:1001300080818EBD0DB407FEFDCF81818EBD0DB4D3
:1001400007FEFDCF828133968EBD0DB407FEFDCF35
:1001500081E0EB31F80761F791E09093000180EACC
:1001600080938000B09A90936F0080E00895CF93C1
:10017000DF93EC01219A229A539A2A9A239A259A7C
:10018000229A2D9881E08DBD80E58CBDCB0124E0C5
:10019000969587952A95E1F7262F2295207F272B84
:1001A000E3E0F1E0808321836283339691E0EB31D9
:1001B000F907C1F7CE010E94840080E2809380009D
:1001C00010926F0010920001299A29988093800064
:1001D00080E18093810081E090E09093890080939A
:1001E000880082E090E090938B0080938A0080E00A
:1001F00090E2909387008093860083E28093B00022
:1002000088E08093B1001092B40083E08093B30043
:100210008091B10081608093B10080918100816004
:1002200080938100CE010E948400DF91CF910895D8
:100230009FE0961B83E0989FF0011124F695E795C7
:10024000ED5FFE4F90FF06C08081807F852B80830D
:1002500041830895CA0134E0969587953A95E1F770
:10026000808381818F70942F9295907F892B8183D9
:100270000895CF93DF93C0E0D0E08BE191E060E0A0
:1002800040E050E00E9418018BE191E00E94840060
:100290002196C033D10589F7DF91CF9108958BE185
:1002A00091E060E070E00E94B70008950E94A5010F
:1002B0000E944F010E943901FDCF1F920F920FB68D
:1002C0000F9211242F933F938F939F93AF93BF93DC
:1002D0008091210190912201A0912301B0912401EC
:1002E000309125010196A11DB11D232F2D5F2D37C2
:1002F00020F02D570196A11DB11D2093250180935B
:10030000210190932201A0932301B09324018091B5
:100310001D0190911E01A0911F01B0912001019635
:10032000A11DB11D80931D0190931E01A0931F017B
:10033000B0932001BF91AF919F918F913F912F91E9
:100340000F900FBE0F901F901895789484B582601F
:1003500084BD84B5816084BD85B5826085BD85B569
:10036000816085BDEEE6F0E0808181608083E1E818
:10037000F0E0808182608083808181608083E0E81A
:10038000F0E0808181608083E1EBF0E08081846037
:100390008083E0EBF0E0808181608083EAE7F0E039
:1003A000808184608083808182608083808181609D
:1003B00080838081806880831092C1000895F894C2
:0203C000FFCF6D
:00000001FF
