:100000000C9434000C9451000C9451000C94510049
:100010000C9451000C9451000C9451000C9451001C
:100020000C9451000C9451000C9451000C9451000C
:100030000C9451000C9453000C9451000C945100FA
:100040000C9475010C9451000C9451000C945100C7
:100050000C9451000C9451000C9451000C945100DC
:100060000C9451000C94510011241FBECFEFD8E026
:10007000DEBFCDBF11E0A0E0B1E0E6E4F4E002C0F5
:1000800005900D92A830B107D9F711E0A8E0B1E0D2
:1000900001C01D92A634B107E1F70E946E010C94D5
:1000A00021020C9400001F920F920FB60F921124A0
:1000B0002F933F934F935F936F937F938F939F9370
:1000C000AF93BF93EF93FF9380E2809380001092F1
:1000D0006F0010920801E0910901F0910A01309738
:1000E00011F078940995FF91EF91BF91AF919F9195
:1000F0008F917F916F915F914F913F912F910F90D1
:100100000FBE0F901F90189580910801882311F061
:1001100081E0089580E28093800080913C018823F3
:1001200019F010923C0102C02D9A2D98EBE0F1E0FD
:1001300080818EBD0DB407FEFDCF81818EBD0DB4D3
:1001400007FEFDCF828133968EBD0DB407FEFDCF35
:1001500081E0EB33F80761F791E09093080180EAC2
:1001600080938000B09A90936F0080E00895CF93C1
:10017000DF93EC01219A229A539A2A9A239A259A7C
:10018000229A2D9881E08DBD80E58CBDCB0124E0C5
:10019000969587952A95E1F7262F2295207F272B84
:1001A000EBE0F1E0808321836283339691E0EB33CF
:1001B000F907C1F7CE010E94840080E2809380009D
:1001C00010926F0010920801299A2998809380005C
:1001D00080E18093810081E090E09093890080939A
:1001E000880082E090E090938B0080938A0080E00A
:1001F00090E2909387008093860083E28093B00022
:1002000088E08093B1001092B40083E08093B30043
:100210008091B10081608093B10080918100816004
:1002200080938100CE010E948400DF91CF910895D8
:100230009FE1961B83E0989FF0011124F695E795C6
:10024000E55FFE4F90FF06C08081807F852B808315
:1002500041830895CA0134E0969587953A95E1F770
:10026000808381818F70942F9295907F892B8183D9
:100270000895CF93DF93C0E0D1E08BE391E06881F4
:100280004EEF50E00E9418018BE391E00E94840041
:1002900064E670E080E090E00E94BD018BE391E0B5
:1002A000688140E050E00E9418018BE391E00E94D9
:1002B000840064E670E080E090E00E94BD01229638
:1002C00081E0C830D807C9F6DF91CF9108958BE35C
:1002D00091E060E070E00E94B70008950E94E7019D
:1002E0000E9467010E943901FDCF1F920F920FB645
:1002F0000F9211242F933F938F939F93AF93BF93AC
:100300008091410190914201A0914301B09144013B
:10031000309145010196A11DB11D232F2D5F2D3771
:1003200020F02D570196A11DB11D2093450180930A
:10033000410190934201A0934301B0934401809105
:100340003D0190913E01A0913F01B0914001019685
:10035000A11DB11D80933D0190933E01A0933F01EB
:10036000B0934001BF91AF919F918F913F912F9199
:100370000F900FBE0F901F901895EF92FF920F9362
:100380001F937B018C018FB7F894409141015091EC
:10039000420160914301709144018FBF2FB7F894DF
:1003A0008091410190914201A0914301B09144019B
:1003B0002FBF841B950BA60BB70BE816F9060A078F
:1003C0001B0760F71F910F91FF90EF9008957894AD
:1003D00084B5826084BD84B5816084BD85B582604A
:1003E00085BD85B5816085BDEEE6F0E080818160E8
:1003F0008083E1E8F0E08081826080838081816099
:100400008083E0E8F0E0808181608083E1EBF0E0D0
:10041000808184608083E0EBF0E080818160808374
:10042000EAE7F0E08081846080838081826080835D
:100430008081816080838081806880831092C10088
:060440000895F894FFCFBF
:0804460000000F0010001F0070
:00000001FF
